:020000040800F2
:10000000000002209D7500088D5300088F530008E2
:100010009153000893530008955300080000000016
:10002000000000000000000000000000E172000875
:100030009753000800000000117300088D7200083B
:10004000ED750008ED750008ED750008ED75000808
:10005000ED750008ED750008ED750008ED750008F8
:10006000ED750008ED750008ED750008995300085E
:10007000ED750008ED750008ED750008ED750008D8
:10008000ED750008ED750008ED750008ED750008C8
:10009000ED750008ED750008ED750008ED750008B8
:1000A000ED750008ED750008ED750008ED750008A8
:1000B000ED750008ED750008ED750008ED75000898
:1000C000ED750008ED750008ED750008ED75000888
:1000D000ED750008ED750008A9530008B953000834
:1000E000ED750008ED750008ED750008ED75000868
:1000F000ED750008ED750008ED750008ED75000858
:10010000ED750008ED750008ED750008ED75000847
:10011000ED750008ED750008ED750008C95300087D
:10012000ED750008ED750008D9530008ED7500085D
:10013000ED750008ED750008ED750008ED75000817
:10014000ED750008ED750008ED750008ED75000807
:10015000ED750008ED750008ED750008ED750008F7
:10016000ED750008ED750008ED750008ED750008E7
:10017000ED750008ED750008ED7500080000000041
:08018000ED750008ED750008A3
:1001900081F0004102E000BF83F0004330B54FEA38
:1001A00041044FEA430594EA050F08BF90EA020FA5
:1001B0001FBF54EA000C55EA020C7FEA645C7FEA38
:1001C000655C00F0E2804FEA5454D4EB5555B8BF5B
:1001D0006D420CDD2C4480EA020281EA030382EACC
:1001E000000083EA010180EA020281EA0303362D5E
:1001F00088BF30BD11F0004F4FEA01314FF4801C31
:100200004CEA113102D0404261EB410113F0004F42
:100210004FEA03334CEA133302D0524263EB4303F9
:1002200094EA050F00F0A780A4F10104D5F1200E97
:100230000DDB02FA0EFC22FA05F2801841F10001F2
:1002400003FA0EF2801843FA05F359410EE0A5F1C6
:1002500020050EF1200E012A03FA0EFC28BF4CF0F7
:10026000020C43FA05F3C01851EBE37101F00045AD
:1002700007D54FF0000EDCF1000C7EEB00006EEBBA
:100280000101B1F5801F1BD3B1F5001F0CD3490844
:100290005FEA30004FEA3C0C04F101044FEA44529B
:1002A00012F5800F80F09A80BCF1004F08BF5FEA22
:1002B000500C50F1000041EB045141EA050130BD02
:1002C0005FEA4C0C404141EB0101013C28BFB1F514
:1002D000801FE9D291F0000F04BF01460020B1FA5F
:1002E00081F308BF2033A3F10B03B3F120020CDA32
:1002F0000C3208DD02F1140CC2F10C0201FA0CF010
:1003000021FA02F10CE002F11402D8BFC2F1200C74
:1003100001FA02F120FA0CFCDCBF41EA0C0190402A
:10032000E41AA2BF01EB0451294330BD6FEA040473
:100330001F3C1CDA0C340EDC04F11404C4F120025E
:1003400020FA04F001FA02F340EA030021FA04F370
:1003500045EA030130BDC4F10C04C4F1200220FAC7
:1003600002F001FA04F340EA0300294630BD21FA05
:1003700004F0294630BD94F0000F83F4801306BFCB
:1003800081F480110134013D4EE77FEA645C18BFBF
:100390007FEA655C29D094EA050F08BF90EA020F56
:1003A00005D054EA000C04BF1946104630BD91EA4E
:1003B000030F1EBF0021002030BD5FEA545C05D151
:1003C0004000494128BF41F0004130BD14F5800490
:1003D0003CBF01F5801130BD01F0004545F0FE4104
:1003E00041F470014FF0000030BD7FEA645C1ABF39
:1003F000194610467FEA655C1CBF0B46024650EA70
:10040000013406BF52EA033591EA030F41F400219B
:1004100030BD00BF90F0000F04BF0021704730B521
:100420004FF4806404F132044FF000054FF00001F6
:1004300050E700BF90F0000F04BF0021704730B5B7
:100440004FF4806404F1320410F0004548BF40428C
:100450004FF000013EE700BF42004FEAE2014FEAE1
:1004600031014FEA02701FBF12F07F4393F07F4FBC
:1004700081F06051704732F07F4208BF704793F0BF
:100480007F4F04BF41F40021704730B54FF46074D2
:1004900001F0004521F000411CE700BF50EA0102D5
:1004A00008BF704730B54FF000050AE050EA01027E
:1004B00008BF704730B511F0004502D5404261EBEE
:1004C00041014FF4806404F132045FEA915C3FF42F
:1004D000D8AE4FF003025FEADC0C18BF03325FEACC
:1004E000DC0C18BF033202EBDC02C2F1200300FA7D
:1004F00003FC20FA02F001FA03FE40EA0E0021FAA2
:1005000002F11444BDE600BF70B54FF0FF0C4CF48F
:10051000E06C1CEA11541DBF1CEA135594EA0C0F41
:1005200095EA0C0F00F0DEF82C4481EA030621EA7C
:100530004C5123EA4C5350EA013518BF52EA0335B7
:1005400041F4801143F4801338D0A0FB02CE4FF069
:100550000005E1FB02E506F00042E0FB03E54FF099
:100560000006E1FB03569CF0000F18BF4EF0010E91
:10057000A4F1FF04B6F5007F64F5407404D25FEA8D
:100580004E0E6D4146EB060642EAC62141EA555140
:100590004FEAC52040EA5E504FEACE2EB4F1FD0C82
:1005A00088BFBCF5E06F1ED8BEF1004F08BF5FEA00
:1005B000500E50F1000041EB045170BD06F00046B2
:1005C00046EA010140EA020081EA0301B4EB5C045F
:1005D000C2BFD4EB0C0541EA045170BD41F4801157
:1005E0004FF0000E013C00F3AB8014F1360FDEBF7C
:1005F000002001F0004170BDC4F10004203C35DA58
:100600000C341BDC04F11404C4F1200500FA05F3DA
:1006100020FA04F001FA05F240EA020001F000427B
:1006200021F0004110EBD37021FA04F642EB0601F1
:100630005EEA430E08BF20EAD37070BDC4F10C041B
:10064000C4F1200500FA04F320FA05F001FA04F2DF
:1006500040EA020001F0004110EBD37041F10001CB
:100660005EEA430E08BF20EAD37070BDC4F12005D6
:1006700000FA05F24EEA020E20FA04F301FA05F23E
:1006800043EA020321FA04F001F0004121FA04F2E6
:1006900020EA020000EBD3705EEA430E08BF20EAB6
:1006A000D37070BD94F0000F0FD101F000464000F0
:1006B00041EB010111F4801F08BF013CF7D041EA72
:1006C000060195F0000F18BF704703F00046520076
:1006D00043EB030313F4801F08BF013DF7D043EA47
:1006E0000603704794EA0C0F0CEA135518BF95EAFD
:1006F0000C0F0CD050EA410618BF52EA4306D1D184
:1007000081EA030101F000414FF0000070BD50EAA2
:10071000410606BF1046194652EA430619D094EA2C
:100720000C0F02D150EA013613D195EA0C0F05D116
:1007300052EA03361CBF104619460AD181EA03016A
:1007400001F0004141F0FE4141F470014FF0000022
:1007500070BD41F0FE4141F4780170BD70B54FF0BD
:10076000FF0C4CF4E06C1CEA11541DBF1CEA13553D
:1007700094EA0C0F95EA0C0F00F0A7F8A4EB05041F
:1007800081EA030E52EA03354FEA013100F0888016
:100790004FEA03334FF0805545EA131343EA1263DF
:1007A0004FEA022245EA111545EA10654FEA002694
:1007B0000EF000419D4208BF964244F1FD0404F54D
:1007C000407402D25B084FEA3202B61A65EB0305A9
:1007D0005B084FEA32024FF480104FF4002CB6EB66
:1007E000020E75EB030E22BFB61A754640EA0C00E6
:1007F0005B084FEA3202B6EB020E75EB030E22BF26
:10080000B61A754640EA5C005B084FEA3202B6EB66
:10081000020E75EB030E22BFB61A754640EA9C0025
:100820005B084FEA3202B6EB020E75EB030E22BFF5
:10083000B61A754640EADC0055EA060E18D04FEAB3
:10084000051545EA16754FEA06164FEAC30343EA53
:1008500052734FEAC2025FEA1C1CC0D111F4801F20
:100860000BD141EA00014FF000004FF0004CB6E719
:1008700011F4801F04BF01430020B4F1FD0C88BFB8
:10088000BCF5E06F3FF6AFAEB5EB030C04BFB6EBC3
:10089000020C5FEA500C50F1000041EB045170BDB6
:1008A0000EF0004E4EEA113114EB5C04C2BFD4EBE3
:1008B0000C0541EA045170BD41F480114FF0000E67
:1008C000013C90E645EA060E8DE60CEA135594EAE3
:1008D0000C0F08BF95EA0C0F3FF43BAF94EA0C0FE6
:1008E0000AD150EA01347FF434AF95EA0C0F7FF45B
:1008F00025AF104619462CE795EA0C0F06D152EAAF
:1009000003353FF4FDAE1046194622E750EA410692
:1009100018BF52EA43067FF4C5AE50EA41047FF4A3
:100920000DAF52EA43057FF4EBAE12E74FF0FF3C08
:1009300006E000BF4FF0010C02E000BF4FF0010CD9
:100940004DF804CD4FEA410C7FEA6C5C4FEA430C52
:1009500018BF7FEA6C5C1BD001B050EA410C0CBFA1
:1009600052EA430C91EA030F02BF90EA020F002003
:10097000704710F1000F91EA030F58BF994208BF6A
:1009800090422CBFD8176FEAE37040F00100704727
:100990004FEA410C7FEA6C5C02D150EA013C07D17E
:1009A0004FEA430C7FEA6C5CD6D152EA033CD3D0C9
:1009B0005DF8040B704700BF8446104662468C46C3
:1009C0001946634600E000BF01B5FFF7B7FF0028F6
:1009D00048BF10F1000F01BD4DF808EDFFF7F4FF1F
:1009E0000CBF012000205DF808FB00BF4DF808EDAA
:1009F000FFF7EAFF34BF012000205DF808FB00BFCD
:100A00004DF808EDFFF7E0FF94BF012000205DF8EE
:100A100008FB00BF4DF808EDFFF7CEFF94BF0120A3
:100A200000205DF808FB00BF4DF808EDFFF7C4FF9C
:100A300034BF012000205DF808FB00BF4FEA410CE5
:100A40007FEA6C5C02D150EA013C0AD14FEA430CC8
:100A50007FEA6C5C02D152EA033C02D14FF0000005
:100A600070474FF0010070474FEA410212F5001243
:100A700015D211D56FF47873B3EB625212D94FEAE5
:100A8000C12343F0004343EA505311F0004F23FACF
:100A900002F018BF404270474FF00000704750EA24
:100AA000013005D111F0004008BF6FF000407047E1
:100AB0004FF00000704700BF4FEA4102B2F1E0433F
:100AC00024BFB3F5001CDCF1FE5C0DD901F0004C35
:100AD0004FEAC0024CEA5070B2F1004F40EB830085
:100AE00008BF20F00100704711F0804F21D113F1B1
:100AF0003872BCBF01F00040704741F480114FEAEA
:100B00005252C2F11802C2F1200C10FA0CF320FA72
:100B100002F018BF40F001004FEAC1234FEAD3238F
:100B200003FA0CFC40EA0C0023FA02F34FEA4303F9
:100B3000CCE77FEA625307D150EA01331EBF4FF082
:100B4000FE4040F44000704701F0004040F0FE409D
:100B500040F40000704700BF80F0004002E000BF9A
:100B600081F0004142001FBF5FEA410392EA030F98
:100B70007FEA226C7FEA236C6AD04FEA1262D2EBE2
:100B80001363C1BFD218414048404140B8BF5B42E7
:100B9000192B88BF704710F0004F40F4000020F080
:100BA0007F4018BF404211F0004F41F4000121F096
:100BB0007F4118BF494292EA030F3FD0A2F10102E0
:100BC00041FA03FC10EB0C00C3F1200301FA03F11E
:100BD00000F0004302D5494260EB4000B0F5000F41
:100BE00013D3B0F1807F06D340084FEA310102F100
:100BF0000102FE2A51D2B1F1004F40EBC25008BFB2
:100C000020F0010040EA03007047490040EB00007B
:100C1000013A28BFB0F5000FEDD2B0FA80FCACF17C
:100C2000080CB2EB0C0200FA0CF0AABF00EBC250A9
:100C300052421843BCBFD0401843704792F0000F97
:100C400081F4000106BF80F400000132013BB5E7EA
:100C50004FEA41037FEA226C18BF7FEA236C21D060
:100C600092EA030F04D092F0000F08BF08467047C5
:100C700090EA010F1CBF0020704712F07F4F04D193
:100C8000400028BF40F00040704712F100723CBFA6
:100C900000F50000704700F0004343F0FE4040F4D0
:100CA000000070477FEA226216BF08467FEA23638E
:100CB0000146420206BF5FEA412390EA010F40F479
:100CC000800070474FF0000304E000BF10F00043C5
:100CD00048BF40425FEA000C08BF704743F09643AC
:100CE00001464FF000001CE050EA010208BF7047C7
:100CF0004FF000030AE000BF50EA010208BF70474E
:100D000011F0004302D5404261EB41015FEA010C62
:100D100002BF84460146002043F0B64308BFA3F15A
:100D20008053A3F50003BCFA8CF2083AA3EBC2533C
:100D300010DB01FA02FC634400FA02FCC2F120025B
:100D4000BCF1004F20FA02F243EB020008BF20F092
:100D50000100704702F1200201FA02FCC2F12002F8
:100D600050EA4C0021FA02F243EB020008BF20EAED
:100D7000DC70704753B94AB9002908BF00281CBF6E
:100D80004FF0FF314FF0FF3000F00CB8ADF1080C20
:100D90006DE904CE08F08EF9DDF804E0DDE9022308
:100DA00004B07047704700BF0348044B834202D031
:100DB000034B03B118477047640000206400002013
:100DC000000000000548064B1B1AD90F01EBA301D8
:100DD000491002D0034B03B118477047640000204C
:100DE000640000200000000010B5064C237843B9D1
:100DF000FFF7DAFF044B13B10448AFF3008001237F
:100E0000237010BD6400002000000000B4950008AD
:100E100008B5054B1BB105490548AFF30080BDE897
:100E20000840FFF7CFBF00BF0000000068000020AF
:100E3000B495000808B500F033F800F04BF800F066
:100E400057FA0F4B1B680F4959610F4A5A630F48F5
:100E500098619A63DFF840C0C3F81CC0DFF83CC05B
:100E6000C3F83CC019621A6459625A6498629A6461
:100E70000748D8620748D86419631A6508BD00BFDF
:100E8000040000200000314300009C430000524356
:100E900066E642439A199C439A1943439AD99B4365
:100EA00000B585B000230093019302930393FF23C1
:100EB0008DF80030AA228DF801208DF803306423CC
:100EC00005226946024805F07EFE05B05DF804FB88
:100ED000B403002070B5402008F04AFA964B186021
:100EE000F0B1964B0360944E3468954B6360954B1C
:100EF000A360954BE360002525616561934BA36179
:100F000004F026FCE061336800221A625A629A6299
:100F1000DA621D635D631D619D63012283F83C20DD
:100F2000402008F025FA8A4B1860F0B1894B036025
:100F3000874E3468884B6360884BA360824BE360C4
:100F4000002525616561814BA36104F001FCE0612E
:100F5000336800221A625A629A62DA621D635D6324
:100F60001D619D63012283F83C20402008F000FAB7
:100F70007B4B1860F0B17B4B0360794E34687A4B41
:100F800063606E4BA360704BE36000252561656173
:100F90006E4BA36104F0DCFBE061336800221A624F
:100FA0005A629A62DA621D635D631D619D6301226C
:100FB00083F83C20402008F0DBF96C4B1860F0B15E
:100FC0006B4B0360694E34686A4B63606A4BA36085
:100FD0006A4BE360002525616561694BA36104F0FC
:100FE000B7FBE061336800221A625A629A62DA62E1
:100FF0001D635D631D619D63012283F83C204020D9
:1010000008F0B6F95F4B1860F0B15F4B03605D4EBE
:1010100034685E4B63604F4BA3604B4BE36000252D
:10102000256165615A4BA36104F092FBE06133686E
:1010300000221A625A629A62DA621D635D631D6160
:101040009D63012283F83C20402008F091F9514B28
:101050001860F0B1504B03604E4E34684F4B6360E4
:10106000364BA360384BE360002525616561484B32
:10107000A36104F06DFBE061336800221A625A62DA
:101080009A62DA621D635D631D619D63012283F8CC
:101090003C20402008F06CF9414B1860F0B1414B06
:1010A00003603F4E3468394B63603F4BA360264B6F
:1010B000E360002525616561354BA36104F048FBC1
:1010C000E061336800221A625A629A62DA621D6332
:1010D0005D631D619D63012283F83C20402008F080
:1010E00047F9324B1860E8B1314B03602F4E34683A
:1010F0002A4B63602F4BA360134BE36000252561EF
:101100006561234BA36104F023FBE0613368002297
:101110001A625A629A62DA621D635D639D630122FC
:1011200083F83C20402008F023F9234B1860002866
:1011300061D0024B036041E0B00000203F7A943F51
:101140003F7A143F6590ED3ECDCC4C3D00002041F0
:10115000AC0000205EB7DE3F5EB75E3F4B2C323FF7
:10116000A8000020697677406976F73FA400002048
:101170004B2CB23F6D0E513B3F7A1440B6F37D3D90
:1011800000808944A00000205EB75E40D6898E3C76
:10119000000048449C000020E4166B4043609E3CE5
:1011A00098000020E9143B4010C94B4094000020F7
:1011B000A079454060DB074090000020334E346842
:1011C000334B6360334BA360334BE36000252561F1
:1011D0006561324BA36104F0BBFAE0613368002221
:1011E0001A625A629A62DA621D635D631D619D63D1
:1011F000012283F83C20402008F0BAF8284B186000
:10120000F0B1284B0360264E3468274B6360274BB0
:10121000A360214BE3600025256165611F4BA3613D
:1012200004F096FAE061336800221A625A629A6208
:10123000DA621D635D631D619D63012283F83C20BA
:10124000402008F095F81A4B1860F0B1194B036074
:10125000174E3468184B6360184BA3600E4BE36065
:10126000002525616561164BA36104F071FAE06108
:10127000336800221A625A629A62DA621D635D6301
:101280001D619D63012283F83C2070BD9000002009
:101290003F7A143F6590ED3ECDCC4C3D0000C841F7
:1012A0008C0000205EB7DE3F5EB75E3F4B2C323FC6
:1012B000880000206976774054F8C53E3F7A943F15
:1012C0000000A04198B138B504460025056145618C
:1012D00004F03EFAE061002323626362A362E362EA
:1012E00025636563A563012384F83C3038BD7047EE
:1012F00008B5582008F03CF8124B186000B30022E3
:1013000002601B685A609A60DA601A615A619A61D9
:10131000DA610021198459849984D9841985598501
:101320009985D9851A635A639A63DA631A645A6491
:101330009A64DA641A65042283F8542083F85510FD
:1013400008BD00BF84000020194B196800220A6004
:101350001B685A609A60DA601A615A619A61DA61B0
:101360000021198459849984D984198559859985CE
:10137000D9851A635A639A63DA631A645A649A6461
:10138000DA641A65042283F854200A4B1A68012390
:1013900082F85830084A126882F85830074A1268B2
:1013A00082F85830064A126882F85830704700BFF9
:1013B00084000020C0000020BC000020B8000020F5
:1013C000B4000020000000002DE9F8432DED068B4D
:1013D000AF4B93ED007ADFEDAF7A67EE277ADFED62
:1013E000AE6AC7EEA67A17EE909A17EE100AFFF7CC
:1013F00033F804460D460022A84B06F0F9F89EA3E8
:10140000D3E90023FFF710FB002800F0C980A44BAC
:101410001B68002283F85520A24CD4F800C0DCEDF4
:10142000157A9F4A1368FDEEE77A17EE901A198530
:101430009D4DD5F800E0DEED157AFDEEE77A17EE6A
:10144000901A598599480768D7ED157AFDEEE77A25
:1014500017EE901A998596490E68D6ED157AFDEE2D
:10146000E77A17EE908AA3F82E80DCED157A9EEDD0
:10147000157A77EE877A97ED157A77EE877A96ED7B
:10148000157A77EE877AB5EE009A67EE897AC3ED22
:10149000007AD5F8008098ED158A2768D7ED157A7F
:1014A00038EE678A0668D6ED157A38EE278A0D6819
:1014B000D5ED157A38EE678A146828EE098A84ED2E
:1014C000018A94ED00AA484606F046F909EE900A12
:1014D0006AEE29AA484606F075F908EE900A68EE09
:1014E000287A7AEEE7AAC4ED0CAA2AEE28AA28EEFA
:1014F000298A3AEE08AA84ED0DAAD7ED147A98ED60
:10150000147A77EE877A96ED147A77EE877A95EDEE
:10151000147A77EE877A67EE897AC4ED047AD8ED8B
:10152000147A97ED147A77EEC77A96ED147A77EEFF
:10153000877A95ED147A77EEC77A67EE897AC4EDEB
:10154000057A04F005F95B4B1B68C01AB0F57A7F89
:1015500004D9534B1B6800221A615A61504B1B6817
:10156000D3ED107A93ED046A29EE867AD3ED056AFD
:1015700068EEA65A37EE657A77EE877AC3ED107A71
:10158000D3ED117A68EE868A69EEA69A78EEA98A7A
:1015900077EEA87AC3ED117ABDEC068BBDE8F8832F
:1015A00000223E4B2046294606F022F80022424BFC
:1015B000FFF71CFA00287FF42AAF0022374B2046A1
:1015C000294606F015F800223B4BFFF72DFA88B1AB
:1015D0000022324B2046294606F00AF828A3D3E918
:1015E0000023FFF703FA28B12D4B1B68012283F873
:1015F000552011E70022294B2046294605F0F8FF27
:101600001FA3D3E90023FFF70FFA88B10022234B71
:101610002046294605F0ECFF1BA3D3E90023FFF782
:10162000E5F928B11E4B1B68022283F85520F3E62A
:1016300000221A4B2046294605F0DAFF12A3D3E90F
:101640000023FFF7F1F900283FF4E6AE0022134B28
:101650002046294605F0CCFF07A3D3E90023FFF776
:10166000C5F900283FF4D8AE0D4B1B68032283F860
:101670005520D1E6AFF300800000000000B07340B9
:101680000000000000E060400000000000206C400E
:10169000DC000020DB0F494000003443008076402E
:1016A00084000020C0000020BC000020B800002002
:1016B000B4000020D00000200080464010B5044651
:1016C000012003F0E9F9204604F048F8022003F075
:1016D000E3F9204604F042F8032003F0DDF9204648
:1016E00004F03CF8042003F0D7F9204604F036F863
:1016F000FFF76AFE10BD00002DE9F0472DED048BC9
:1017000084B07F4BD3ED007A9FED7E7A67EE877AC7
:101710009FED7D7AC7EE877A17EE905A7B4B1C6857
:10172000D4ED0E8A284606F017F809EE100A28EEC6
:10173000898AD4ED0F9A284606F044F807EE100A7D
:1017400069EE877A78EE277AC4ED027A68EEC76A86
:1017500029EE299A76EE896AC4ED036A77EEE65A95
:1017600094ED147A9FED6A6A27EE467A9FED696AD6
:1017700027EE067A35EE876ABDEEC66A16EE103A97
:1017800018B2208477EEA67A77EEC76AFDEEE66A95
:1017900016EE903A1FB2678477EE277AFDEEE77A6D
:1017A00017EE903A1DB2A58475EEC75AFDEEE55AC4
:1017B00015EE903A1EB2E684FEF73CFE4CA3D3E948
:1017C0000023FEF7A1FE80468946B4F92800FEF703
:1017D00031FE49A3D3E90023FEF796FE02460B46ED
:1017E00040464946FEF7DAFCFFF73EF90FFA80FA69
:1017F000A4F820A03846FEF71DFE3DA3D3E9002340
:10180000FEF782FE80468946B4F92A00FEF712FEF2
:1018100039A3D3E90023FEF777FE02460B46404684
:101820004946FEF7BBFCFFF71FF907B2678428465D
:10183000FEF700FE2EA3D3E90023FEF765FE8046E7
:101840008946B4F92C00FEF7F5FD2BA3D3E900235C
:10185000FEF75AFE02460B4640464946FEF79EFCFE
:10186000FFF702F905B2A5843046FEF7E3FD20A399
:10187000D3E90023FEF748FE80468946B4F92E00DE
:10188000FEF7D8FD1CA3D3E90023FEF73DFE024678
:101890000B4640464946FEF781FCFFF7E5F803B2E8
:1018A000E38405220292012201929622009207EE21
:1018B000903AF8EEE77A17EE903A07EE905AF8EE83
:1018C000E77A17EE902A07EE907AF8EEE77A17EEAD
:1018D000901A07EE90AAF8EEE77A17EE900A03F056
:1018E000A5F804B0BDEC048BBDE8F087AFF3008031
:1018F000333333333333EB3F333333333333C33F58
:10190000DC000020DB0F494000003443840000204D
:101910009A99014052B8DE3F10B582B004460B4B95
:101920001B68042283F85420642003F017FF2CB9AD
:101930000021084602F058FE02B010BD00200090C1
:1019400096230246014602F0EDFDF5E784000020F3
:10195000F0B52DED028B83B008EE100ADFED267A8C
:1019600028EE678ADFED257A28EE278AFDEEC87A11
:1019700017EE907A01260196002500953B469622A7
:101980004FF44871304602F06DFE0A2003F0E6FE87
:10199000B1EE488AFDEEC87A17EE904A019600959E
:1019A000234696224FF44871022002F05BFE0A2083
:1019B00003F0D4FE019600953B4696224FF4487101
:1019C000032002F04FFE0A2003F0C8FE01960095A6
:1019D000234696224FF44871042002F043FE0A2069
:1019E00003F0BCFE284602F01FFE0A2003F0B6FEFC
:1019F00003B0BDEC028BF0BD00004A4321FC8D3CDE
:101A000038B52DED048B0C4691F83C30002B61D19C
:101A100008EE100A03F09CFE0546E369C31A07EEC0
:101A2000903AF8EE677A7E499FED7E7AC7EE877A24
:101A300017EE900A05F026FF7B4905F005FF08EE3A
:101A4000900AE561E060B0EEC89A94ED057A38EE50
:101A5000477AC7EE287ADFED756A67EEA67A94EDCD
:101A6000087A9FED736A27EE067A77EE877A94ED0F
:101A7000097ADFED705A27EE257A77EE877A94EDB2
:101A80000A7A27EE067A77EE877A94ED0B7A27EEBC
:101A9000267A77EE879A0C2204F1200104F12400C3
:101AA00007F01CFDC4ED089ADFED637AB4EEE79A07
:101AB000F1EE10FA17DCB0EE677AC9EE077AB6EEEF
:101AC000007A67EE877A37EE877AB7EE006A36EEED
:101AD000676A0CE0002381F83C3003F039FEE061D6
:101AE000DFED567A8DE0B7EE086A9FED557AF3EE9A
:101AF0000E7AB4EEE79AF1EE10FA1AD577EEC95ADB
:101B0000C5EEA76AF7EE007A76EEA75A27EE257A99
:101B100077EEE67A26EE276AB5EEC08AF1EE10FA85
:101B200004DDF0EE087A66EEA76A04E0F8EE087AC3
:101B3000F9E7DFED426AD4ED007A67EE877A67EE67
:101B4000887A94ED027A27EE067A27EE297A77EEE4
:101B5000877A77EEA69AF1EE0E7AB4EEE79AF1EE76
:101B600010FA53D5D4ED047A68EE888ADFED356A31
:101B700068EEA68A77EEA87AC4ED047A94ED067A28
:101B80009FED316A27EE067A87EE267A17EE105A15
:101B9000294617EE900A05F075FE85F0004105F024
:101BA00053FE2061D4ED017A94ED047A67EE877AD2
:101BB000A56977EEA97A17EE901A284605F062FE1D
:101BC00085F0004105F040FE07EE900A9FED1F7A78
:101BD00067EE877A94ED0C7ADFED1D6A27EE267AA0
:101BE00077EE877AC4ED0C7AB1EE047AB4EEC79A38
:101BF000F1EE10FA03D59FED137A67EE877A84ED44
:101C0000058A17EE900ABDEC048B38BDD4ED047A3A
:101C1000B6EE007A67EE877AC4ED047AC2E700BFB9
:101C2000CDCCCC3D00007A440AD7A33B6F12033DD4
:101C300083C04A3EB29DEF3E0000C8420000000053
:101C40003333333F9A99993ECDCCCC3D9A99193F85
:101C5000CDCCCC3E38B52DED048B0C4691F83C3004
:101C6000002B61D108EE100A03F072FD0546E3690E
:101C7000C31A07EE903AF8EE677A7E499FED7E7AB6
:101C8000C7EE877A17EE900A05F0FCFD7B4905F058
:101C9000DBFD08EE900AE561E060B0EEC89A94EDD5
:101CA000057A38EE477AC7EE287ADFED756A67EE77
:101CB000A67A94ED087A9FED736A27EE067A77EE9E
:101CC000877A94ED097ADFED705A27EE257A77EE60
:101CD000877A94ED0A7A27EE067A77EE877A94ED82
:101CE0000B7A27EE267A77EE879A0C2204F12001F0
:101CF00004F1240007F0F2FBC4ED089ADFED637AEB
:101D0000B4EEE79AF1EE10FA17DCB0EE677AC9EE9E
:101D1000077AB6EE007A67EE877A37EE877AB7EE03
:101D2000006A36EE676A0CE0002381F83C3003F06D
:101D30000FFDE061DFED567A8DE0B7EE086A9FEDAA
:101D4000557AF3EE0E7AB4EEE79AF1EE10FA1AD560
:101D500077EEC95AC5EEA76AF7EE007A76EEA75A73
:101D600027EE257A77EEE67A26EE276AB5EEC08A68
:101D7000F1EE10FA04DDF0EE087A66EEA76A04E0F0
:101D8000F8EE087AF9E7DFED426AD4ED007A67EE03
:101D9000877A67EE887A94ED027A27EE067A27EE44
:101DA000297A77EE877A77EEA69AF1EE0E7AB4EE7C
:101DB000E79AF1EE10FA53D5D4ED047A68EE888AEA
:101DC000DFED356A68EEA68A77EEA87AC4ED047A6C
:101DD00094ED067A9FED316A27EE067A87EE267A31
:101DE00017EE105A294617EE900A05F04BFD85F0C4
:101DF000004105F029FD2061D4ED017A94ED047ACB
:101E000067EE877AA56977EEA97A17EE901A2846C9
:101E100005F038FD85F0004105F016FD07EE900A4B
:101E20009FED1F7A67EE877A94ED0C7ADFED1D6ADD
:101E300027EE267A77EE877AC4ED0C7AB1EE047A33
:101E4000B4EEC79AF1EE10FA03D59FED137A67EE60
:101E5000877A84ED058A17EE900ABDEC048B38BDB5
:101E6000D4ED047AB6EE007A67EE877AC4ED047A90
:101E7000C2E700BFCDCCCC3D00007A440AD7A33BDB
:101E80006F12033D83C04A3EB29DEF3E0000C84240
:101E9000000000003333333F9A99993ECDCCCC3DBE
:101EA0009A99193FCDCCCC3EF8B52DED0A8B08EEB2
:101EB000901A144692F83C30002B40F0E1800AEE74
:101EC000100A03F045FC08EE100AB8EE488AD4ED7B
:101ED000077AF8EE677A78EE677AE1499FEDE17A62
:101EE000C7EE877A17EE900A05F0CCFCDE4905F0C4
:101EF000ABFC0AEE900ABCEEC88A84ED078ADB4B85
:101F0000D3ED009A3AEE699AD4ED0E7A79EEE77A3B
:101F100087EEAABAB0EECB7AD549DFEDD67AC7EE16
:101F2000277A17EE900A05F0B7FB07EE900A9FEDAF
:101F3000D27A67EE877AB7EE008A38EE678A94ED38
:101F4000057A39EE477AC7EE2A7ADFEDCC6A67EE7A
:101F5000A67A94ED087A9FEDCA6A27EE067A77EEA4
:101F6000877A94ED097ADFEDC75A27EE257A77EE66
:101F7000877A94ED0A7A27EE067A77EE877A94EDDF
:101F80000B7A27EE267A77EE877A9FEDBF7A28EED6
:101F9000078A9FEDBE7A67EE877A94ED0D7ADFEDC2
:101FA000BC6A27EE267A77EE877A28EE278AB0EE8B
:101FB000C9CA1CEE100AFEF74FFA06460F467AEE23
:101FC000688AB0EEE8AA1AEE100AFEF745FA9CA35A
:101FD000D3E90023FEF7E2F802460B4630463946C5
:101FE000FEF7BCFBFEF768FD0BEE900AF2EE047AFA
:101FF000B4EEE7CAF1EE10FA4BD5F1EE047AB4EE86
:10200000E7AAF1EE10FA44D5DFEDA28A6BEE688AFA
:10201000F6EE007AB4EEE7CAF1EE10FA0BDD94EDBD
:10202000047ADFED9D7A69EE277A67EEAA7A77EE79
:10203000277AC4ED047AD4ED067A9FEDA27A67EE92
:10204000877A17EE905A2946206905F01BFC014655
:1020500085F0004005F0F8FB07EE900A20619FED47
:102060008F7A29EE077A77EE877A9FED8D7A28EEC0
:10207000077A77EE877A77EEA87A17EE905AC0E063
:10208000A163002382F83C3003F062FBE061002092
:10209000D0E0DFED847AB4EEE7AAF1EE10FA3BDD92
:1020A000DFED817AB4EEE7AAF1EE10FA34D5F6EE60
:1020B000007AB4EEE7CAF1EE10FA0BDD94ED047A83
:1020C000DFED7A7A69EE277A67EEAA7A77EE277AD9
:1020D000C4ED047AD4ED067A9FED7A7A67EE877ABA
:1020E00017EE905A2946206905F0CCFB85F0004197
:1020F00005F0AAFB07EE900A20619FED6D7A29EEAC
:10210000077A77EE877A9FED6B7A28EE077A77EE7B
:10211000877A17EE905A74E0DFED677AF4EEE7BA4B
:10212000F1EE10FA40F3D0802068FEF795F946A34F
:10213000D3E90023FEF7E8F9FEF7BEFC0AEE100A29
:10214000A068FEF789F942A3D3E90023FEF7DCF982
:10215000FEF7B2FC07EE100A6AEE097AD4ED046AC3
:1021600077EEA67A27EE087A77EE877A17EE905AFE
:10217000DFED527AF4EEE7BAF1EE10FA2BDDF6EE6F
:10218000007A68EEA77AF4EECB7AF1EE10FA22DD4F
:1021900018EE900AFEF760F906460F46F0EEE97A6F
:1021A00017EE900AFEF758F902460B4630463946BC
:1021B000FDF7F2FF28A3D3E90023FEF7A5F90646B1
:1021C0000F462846FEF748F932463B46FDF7E6FF44
:1021D000FEF772FC054694ED0CAAD4ED068ADFEDFD
:1021E000387A68EEA78A29467AEE287A17EE900A9E
:1021F00005F048FB7AEE687A17EE901A05F024FB9A
:1022000005460C2204F1200104F1240007F066F9D0
:1022100084ED088A84ED0D8A84ED059AC4ED0E9A4A
:102220002563A4692946204605F02CFB84F0004173
:1022300005F00AFBBDEC0A8BF8BD00BFAFF30080D0
:1022400000000040E17A843F333333333333E33FDC
:102250009A99999999990140000000403333D33FEE
:10226000CDCCCC3D00007A440AD7A33BDC00002053
:10227000CDCC0C3F000034433333B33E6F12033DEB
:1022800083C04A3EB29DEF3E6666263F7B142E3FDA
:102290000AD7A33ECDCC4C3FDA48803E115B2040AC
:1022A0008941803F0000AA420000BE426D0E513BB2
:1022B0003E6EB13F72E04240CDCCCC3E9A99993E01
:1022C000CDCCCC3D9A99193E5FED027AF4EEE7BA97
:1022D000F1EE10FA18DD2068FEF7BEF818A3D3E976
:1022E0000023FEF711F9FEF7E7FB0AEE100AA068DB
:1022F000FEF7B2F814A3D3E90023FEF705F9FEF7C1
:10230000DBFB07EE100A27E72068FEF7A5F810A30D
:10231000D3E90023FEF7F8F8FEF7CEFB0AEE100A29
:10232000A068FEF799F80CA3D3E90023FEF7ECF8B8
:10233000FEF7C2FB07EE100A0EE700BFAFF3008006
:102340009A9999999999F13F666666666666F63F2D
:10235000666666666666EE3F666666666666E63F63
:1023600038B52DED048B0C4691F83C30002B40F035
:102370009B8008EE900A03F0EBF90546E369C31A67
:1023800007EE903AF8EE677A51499FED527AC7EE20
:10239000877A17EE900A05F075FA4F4905F054FA5E
:1023A00009EE100AE561E060D4ED059A78EEE97A6D
:1023B00087EE898A9FED497A28EE078AD4ED087A5C
:1023C000DFED476A67EEA67A38EE278AD4ED097A00
:1023D0009FED446A67EE867A38EE278AD4ED0A7A52
:1023E00067EEA67A38EE278AD4ED0B7A67EE877A05
:1023F00038EE278A0C2204F1200104F1240007F0B2
:102400006DF884ED088A94ED007A27EE287AD4EDF1
:10241000027A67EE887A37EE278AF0EEE87AB0EE35
:10242000007AF4EEC77AF1EE10FA45D594ED047A0D
:1024300069EE287AD4ED016A67EEA67A77EE277AFC
:10244000C4ED047AA569294617EE900A05F01AFA38
:1024500085F0004105F0F8F92061D4ED047A29EE09
:10246000289A94ED017A29EE079A77EE897AC4EDDD
:10247000047A69EEA89AF5EEC09AF1EE10FA24D427
:10248000D4ED047AA56977EE887A17EE901A28467B
:1024900005F0F8F985F0004105F0D6F92063C4EDA8
:1024A000058ABDEC048B38BD002381F83C3003F075
:1024B0004FF9E0610020F4E7D4ED047AB6EE007A3B
:1024C00067EE877AC4ED047AC7E700232361D7E774
:1024D000CDCCCC3D00007A440AD7A33B6F12033D1C
:1024E00083C04A3EB29DEF3E70B52DED048B0C4685
:1024F00091F83C30002B40F0A68008EE900A03F0E3
:1025000027F90546E369C31A07EE903AF8EE677AB1
:1025100057499FED587AC7EE877A17EE900A05F073
:10252000B1F9554905F090F909EE100AE561E0604E
:10253000D4ED059A78EEE97A87EE898A9FED4F7A95
:1025400028EE078AD4ED087ADFED4D6A67EEA67AA9
:1025500038EE278AD4ED097A9FED4A6A67EE867ACB
:1025600038EE278AD4ED0A7A67EEA67A38EE278A03
:10257000D4ED0B7A67EE877A38EE278A0C2204F1C5
:10258000200104F1240006F0A9FF84ED088A94EDEF
:10259000007A27EE287AD4ED027A67EE887A37EE51
:1025A000278AF0EEE87AB0EE047AF4EEC77AF1EE1C
:1025B00010FA50D594ED047A69EE287AD4ED016AC8
:1025C00067EEA67A77EE277AC4ED047AA5692946E4
:1025D00017EE900A05F056F985F0004105F034F940
:1025E0002061D4ED047A29EE289A94ED017A29EE3F
:1025F000079A77EE897AC4ED047AA569294617EE21
:10260000900A05F03FF985F00046314605F01CF9C7
:10261000206169EEA89AF5EEC09AF1EE10FA23D483
:10262000D4ED047A77EE887A17EE901A284605F0F2
:1026300029F90146304605F007F92063C4ED058A03
:10264000BDEC048B70BD002381F83C3003F080F8B2
:10265000E0610020F4E7D4ED047AB6EE007A67EE8C
:10266000877AC4ED047ABCE700232361D8E700BF72
:10267000CDCCCC3D00007A440AD7A33B6F12033D7A
:1026800083C04A3EB29DEF3E70B52DED068B1446D9
:1026900092F83C30002B40F0E48008EE100A03F082
:1026A00057F808EE900AF8EE688AD4ED077AF8EE4B
:1026B000677A78EEE77A75499FED757AC7EE877A83
:1026C00017EE900A05F0DEF8724905F0BDF809EE44
:1026D000100AFCEEE88AC4ED078A6F4BD3ED009A2E
:1026E00038EE698A94ED05AA78EE4AAA94ED0E7A3E
:1026F00039EEC77AC7EE097AF0EEE77A67499FEDBF
:10270000687AC7EE877A17EE900A04F0C5FF07EEE5
:10271000900A9FED647A67EE877AF7EE008A78EE8A
:10272000E78ACAEE897ADFED606A67EEA67A94EDF1
:10273000087A9FED5E6A27EE067A77EE877A94ED47
:10274000097ADFED5B5A27EE257A77EE877A94EDEA
:102750000A7A27EE067A77EE877A94ED0B7A27EEDF
:10276000267A77EE877A9FED537A68EE878A9FED17
:10277000527A67EE877A94ED0D7ADFED506A27EE94
:10278000267A77EE877A68EEA78AB0EEC87AF0EEFE
:10279000047AB4EEE77AF1EE10FA6BD594ED047A90
:1027A000D4ED037A67EE887AD4ED016A67EEA67AF3
:1027B00077EE277AC4ED047AA569294617EE900AC8
:1027C00005F060F885F0004105F03EF8206194EDD9
:1027D000047AD4ED017A67EE887A67EE897A77EE2B
:1027E000277AC4ED047AA569294617EE900A05F008
:1027F00049F885F00046314605F026F820612AEEBA
:1028000008AAB5EEC0AAF1EE10FA3CD494ED009AF5
:1028100029EE089AD4ED047A39EE279AD4ED027A9B
:1028200067EEA87A39EE279A0C2204F1200104F110
:10283000240006F053FEC4ED088AC4ED0D8A84ED31
:10284000058AC4ED0E9A84ED0C9A19EE101A2846EA
:1028500005F018F80146304604F0F6FFBDEC068B93
:1028600070BD9163002382F83C3002F071FFE0619B
:102870000020F3E7D4ED047AB6EE007A67EE877AAB
:10288000C4ED047AA3E700232361BFE7CDCCCC3DA0
:1028900000007A440AD7A33BDC000020CDCC0C3FDB
:1028A000000034433333B33E6F12033D83C04A3ECE
:1028B000B29DEF3E6666263F7B142E3F0AD7A33EAD
:1028C0002DE9F04F2DED088B9DB009EE100A0AEEB0
:1028D000101A09EE902A9B46FEF736FD0520FEF7FA
:1028E000EDFE454B1868FEF7EDFC444B1868FEF70B
:1028F000E9FC434B1868FEF7E5FC424B1868FEF70D
:10290000E1FC414B1868FEF7DDFC404BD3F800902A
:10291000DFED3F7AB4EEE79AF1EE10FA20D40EDD47
:10292000DFED3C7AB4EEE79AF1EE10FA3CD43EDDEE
:10293000DFED397AB4EEE79AF1EE10FA3AD4DFED32
:10294000367AB4EEE79AF1EE10FA36DDDFED337A3F
:10295000B4EEE79AF1EE10FA32D4F2EE04AA01E0F6
:10296000F7EE08AADFED2E7AB4EEE7AAF1EE10FA40
:1029700029D42EDDDFED277AB4EEE7AAF1EE10FAC6
:102980002AD42CDDDFED247AB4EEE7AAF1EE10FABA
:1029900028D42ADDDFED217AB4EEE7AAF1EE10FAB1
:1029A00026D4B2EE04BA10E0F0EE00AADAE7F2EEB6
:1029B00004AAD7E7F0EE0CAAD4E7F2EE04AAD1E716
:1029C000F1EE0AAACEE7B7EE08BA02F0C1FE8046E1
:1029D0001DE1B2EE04BAF8E7B0EE00BAF5E7B2EEE8
:1029E00004BAF2E7B0EE0CBAEFE7B2EE04BAECE7E5
:1029F000B1EE0ABAE9E700BFA0000020A400002061
:102A00009C0000209800002094000020DC000020A2
:102A10000000F042000048430080E94300007A448F
:102A20000000C842B24B00221A7002F091FEA0EBE7
:102A30000800584580F020810420FEF73FFE682200
:102A4000002102A806F064FDAA4C236893ED107AD9
:102A500079EE477ACDED027AA74AD2ED007A79EE87
:102A6000E77ACDED037AA54A126804921A6D0592B1
:102A70008DED067A1A6B07929A6B08921A68099282
:102A80005A6C0A925A6B0B92DA6B0C925A680D923E
:102A90001A690E925A690F92B3F9282007EE902A0C
:102AA000F8EEE77ACDED107AB3F92A2007EE902AF6
:102AB000F8EEE77ACDED117AB3F92C2007EE902AE3
:102AC000F8EEE77ACDED127AB3F92E2007EE902AD0
:102AD000F8EEE77ACDED137A894A1268516C1491B9
:102AE00088490968496C159187490968496C1691AC
:102AF00086490968496C1791D26B1892844A12680A
:102B0000D26819929A681A92DB681B931A2102A85C
:102B100001F0E4FF246894F8553013B1022B40F023
:102B2000CD80D4ED107A7A4B196879EE677A17EE7A
:102B3000900AFEF765FFA0636E4B1C68D4ED117A16
:102B4000744B19687AEE677A17EE900AFFF782F8ED
:102B5000E063684BD3F800A0DAED0E8A28EEA87A7D
:102B60009AED0F8A68EE087A77EE277A17EE900AC8
:102B7000FDF772FC04F068FDFDF79EFF044618EEB9
:102B8000900AFDF769FC06460F46F0EEE87A17EE6C
:102B9000900AFDF761FCCDE900012046FDF75CFCE1
:102BA00004460D4602460B46DDE90001FDF7D6FD61
:102BB00002460B4630463946FDF7A6FCFDF77CFF82
:102BC000CAF8380018EE100AFDF746FC06460F4614
:102BD000F0EEC87A17EE900AFDF73EFC22462B462F
:102BE000FDF7BCFD02460B4630463946FDF78CFC2E
:102BF000FDF762FFCAF83C00474B1A68494619EED8
:102C0000900AFFF751F9CAF85000FEF775FD394BED
:102C10001B68D3ED107A77EEC97AF0EEE77AF4EE1E
:102C2000EA7AF1EE10FA7FF5FDAED3ED117A77EE88
:102C3000CA7AF0EEE77AF4EECB7AF1EE10FA7FF58D
:102C4000F1AE2D4BD3ED007A77EEE97AF0EEE77A2C
:102C50009FED327AF4EEC77AF1EE10FA7FF5E2AE2C
:102C6000234A13780133DBB21370042B7FF6DDAEF9
:102C70000120FEF751FE02E00120FEF74DFE1C4B45
:102C800000221A70244B1868FEF71CFB204B1868B2
:102C9000FEF718FB1F4B1868FEF714FB204B186853
:102CA000FEF710FB1F4B1868FEF70CFB322002F0FA
:102CB00055FD1DB0BDEC088BBDE8F08FD4ED107A4A
:102CC000144B196879EE677A17EE900AFEF798FEB2
:102CD000A063084B1C68D4ED117A0D4B19687AEE8D
:102CE000677A17EE900AFEF7B5FFE06331E700BFA1
:102CF0008300002084000020DC000020D800002099
:102D0000C0000020BC000020B8000020B40000205B
:102D1000A00000209C000020A4000020CDCC4C3F4F
:102D200098000020940000202DE9F04F2DED068B37
:102D30009DB009EE100A0AEE101A09EE902A9B4681
:102D4000FEF702FB0520FEF7B9FCB44B1868FEF74E
:102D5000B9FAB34B1868FEF7B5FAB24B1868FEF72C
:102D6000B1FAB14B1868FEF7ADFAB04B1868FEF730
:102D7000A9FAAF4BD3F8009002F0EAFC8046F4E0E9
:102D8000AC4B00221A7002F0E3FCA0EB080058459F
:102D900080F022810420FEF791FC6822002102A825
:102DA00006F0B6FBA44C236893ED107A79EE477ACF
:102DB000CDED027A9E4AD2ED007A79EEE77ACDED3A
:102DC000037A9E4A126804921A6D05928DED067A76
:102DD0001A6B07929A6B08921A6809925A6C0A92B7
:102DE0005A6B0B92DA6B0C925A680D921A690E921A
:102DF0005A690F92B3F9282007EE902AF8EEE77A85
:102E0000CDED107AB3F92A2007EE902AF8EEE77A92
:102E1000CDED117AB3F92C2007EE902AF8EEE77A7F
:102E2000CDED127AB3F92E2007EE902AF8EEE77A6C
:102E3000CDED137A824A1268516C14918149096868
:102E4000496C159180490968496C16917F49096858
:102E5000496C1791D26B1892704A1268D268199215
:102E60009A681A92DB681B931A2102A801F036FEB9
:102E7000246894F8553013B1022B40F0E980D4ED6A
:102E8000107A664B196879EE677A17EE900AFEF7AA
:102E9000B7FDA063684B1C68D4ED117A614B1968CB
:102EA0007AEE677A17EE900AFEF7D4FEE063624B83
:102EB000D3F800A0DAED0E8A28EEA87A9AED0F8AF0
:102EC00068EE087A77EE277A17EE900AFDF7C4FAD3
:102ED00004F0BAFBFDF7F0FD044618EE900AFDF78A
:102EE000BBFA06460F46F0EEE87A17EE900AFDF7B9
:102EF000B3FACDE900012046FDF7AEFA04460D46CF
:102F000002460B46DDE90001FDF728FC02460B46B0
:102F100030463946FDF7F8FAFDF7CEFDCAF838001D
:102F200018EE100AFDF798FA06460F46F0EEC87A3A
:102F300017EE900AFDF790FA22462B46FDF70EFC9D
:102F400002460B4630463946FDF7DEFAFDF7B4FD82
:102F5000CAF83C00324B1A68494619EE900AFEF74F
:102F6000A3FFCAF85000FEF7C7FB334B1B68D3ED35
:102F7000107A77EEC97AF0EEE77AB1EE087AF4EEDD
:102F8000C77AF1EE10FA7FF5FBAED3ED117A77EE4A
:102F9000CA7AF0EEE77AF4EEC77AF1EE10FA7FF52E
:102FA000EFAE234BD3ED007A77EEE97AF0EEE77AD5
:102FB000B7EE087AF4EEC77AF1EE10FA7FF5E0AEDC
:102FC0001C4A13780133DBB21370042B7FF6DBAE9F
:102FD0000120FEF7A1FC02E00120FEF79DFC154B4D
:102FE00000221A700E4B1868FEF76CF90B4B18682C
:102FF000FEF768F90B4B1868FEF764F90A4B18687E
:10300000FEF760F9094B1868FEF75CF9322002F010
:10301000A5FB1DB0BDEC068BBDE8F08FA000002025
:10302000A40000209C0000209800002094000020B4
:10303000DC0000208200002084000020D800002056
:10304000C0000020BC000020B8000020B400002018
:10305000D4ED107A0B4B196879EE677A17EE900A67
:10306000FEF7CEFCA063084B1C68D4ED117A074B29
:1030700019687AEE677A17EE900AFEF7EBFDE063C7
:1030800015E700BF9C00002084000020A000002065
:1030900038B52DED028B08EE100A08EE901A154691
:1030A000FEF752F9164BD3ED007A78EE677A17EEF9
:1030B000900AFEF74DFC02F04BFB044607E0114B73
:1030C00000221A7002F044FB001BA84212D20C4BE3
:1030D000D3ED007A77EEC87AF0EEE77AF4EEE87A8C
:1030E000F1EE10FAEBD5074A13780133DBB2137017
:1030F000042BE7D9322002F031FBBDEC028B38BD46
:10310000DC0000208100002038B505460C46052073
:10311000FEF7D4FA744A1268D2ED007AF0EEE76A4C
:10312000B7EE007AF4EEC76AF1EE10FAF2DD92ED36
:10313000017AB0EEC76AF7EE006AB4EEE66AF1EE25
:1031400010FAE7DD072C00F2BA80DFE804F0042F64
:1031500044576A7D92A5D2ED056A77EEE67ADFEDF7
:10316000636A67EEA67A17EE900AD2ED0D7A77EED3
:10317000677A67EEA67A17EE901A5D4B1B6893F894
:103180005530022B00F09E80032B00F0A180012B14
:1031900040F0A78007EE901AF1EE677A014617EE2D
:1031A000900A544A2B46FFF78BFB38BDD2ED066AD6
:1031B00077EEE67ADFED506A67EEA67A17EE900AB0
:1031C000D2ED0E7A37EE677ADFED4C7A67EE277A2A
:1031D00017EE901AD1E7D2ED076A77EEE67ADFEDC7
:1031E000436A67EEA67A17EE900AD2ED0F7A77EE71
:1031F000677A67EEA67A17EE901ABEE7D2ED086AF4
:1032000077EEE67ADFED3E6A67EEA67A17EE900A71
:10321000D2ED107A77EE677A67EEA67A17EE901AFB
:10322000ABE7D2ED096A77EEE67ADFED306A67EE5A
:10323000A67A17EE900AD2ED117A77EE677A67EEEA
:10324000A67A17EE901A98E7D2ED0A6A77EEE67A38
:10325000DFED296A67EEA67A17EE900AD2ED127AB0
:1032600037EE677ADFED257A67EE277A17EE901A48
:1032700083E7D2ED0B6A77EEE67ADFED216A67EE3F
:10328000A67A17EE900AD2ED137A77EE677A67EE98
:10329000A67A17EE901A70E7D2ED0C6A77EEE67A0E
:1032A000DFED126A67EEA67A17EE900AD2ED147A75
:1032B00037EE677A67EE267A17EE901A5DE70021FF
:1032C00008465AE780F0004081F000410D4A69E766
:1032D00007EE900AF1EE677A084617EE901A0A4A4E
:1032E00060E700225EE700BF04000020CDCCCC3EAA
:1032F000840000200000B442E17A543F295C4F3F33
:103300009A99993E0000344300008743F0B52DEDB3
:10331000068B8FB005467B4B1E6802F019FA0446F7
:10332000794B1B6893F85530022B14D0032B15D022
:10333000012B16D1DFED75AAFEF706F8744B18685D
:10334000FDF7C0FF734B1868FDF7BCFF724B1868A0
:10335000FDF7B8FF81E0DFED71AAEDE7DFED70AAC0
:10336000EAE7DFED70AAE7E70020FEF7D5FA6E4B3B
:1033700000221A70664B1868FDF7A4FF654B1868A9
:10338000FDF7A0FF644B1868FDF79CFF322002F0A8
:10339000E5F90FB0BDEC068BF0BD634B00221A704F
:1033A0005B4B196819EE100AFEF7DAFF08EE900A77
:1033B000584B19681AEE100AFFF796F808EE100A33
:1033C000554B1A6831461AEE900AFFF75DF909EE7F
:1033D000900ADFED567A69EEE77A37EEA87A78EE52
:1033E000E77A05230293012301930A27009777EEDA
:1033F000C86A16EE903A77EE086A16EE902A77EED3
:10340000887A17EE901A77EE487A17EE900A01F054
:103410000DFB2822002104A806F07AF88DED049A0D
:103420008DED05AA374BD3ED007A7AEEE77ACDED34
:10343000067ACDED079ACDED088A8DED098A3C4BD1
:103440001B681A680A925A680B92DA690C92DB6B55
:103450000D93394604A801F041FB02F079F9001BF5
:10346000A84281D8324B1B68D3ED007AF0EEE76AB0
:103470009FED307AF4EEC76AF1EE10FAEDD493EDD9
:10348000017AB0EEC76ADFED2B6AB4EEE66AF1EEC0
:1034900010FAE2D4D3ED076A37EEE69AD3ED0F7A4D
:1034A00037EE67AAB0EEC97AF6EE007AB4EEE77AA4
:1034B000F1EE10FA7FF571AFF0EECA7AB6EE007A4F
:1034C000F4EEC77AF1EE10FA7FF567AF0D4BD3ED4E
:1034D000007A7AEEE77AF0EEE77AB0EE007AF4EE70
:1034E000C77AF1EE10FA7FF558AF0F4A137801331F
:1034F000DBB21370042B7FF653AF0020FEF70CFAFB
:1035000035E700BFDC000020840000200000B4424A
:10351000B0000020AC000020A800002000003443D0
:103520000000874300000000800000209A990140BD
:1035300004000020CDCCCC3D2DE9F04F2DED0C8BBF
:1035400091B009EE900A0AEE101A0AEE902A9B46F4
:10355000FDEEE97A17EE903A002BB8BF5B4207EE1A
:10356000903AF8EEE77A9FEDAD7AF4EEC77AF1EE95
:1035700010FA14D431DD9FEDAA7AF4EEC77AF1EE99
:1035800010FA2DD59FEDA77A37EEC77ADFEDA66A40
:1035900027EE267AB2EE04BA3BEE47BA01E0B2EE6D
:1035A00004BA9FED9E7AF4EEC77AF1EE10FA61D478
:1035B00019DD9FED9B7AF4EEC77AF1EE10FA12D581
:1035C0009FED987A77EEC77A9FED987A67EE877AC3
:1035D0009FED97CA3CEE67CA4EE0B2EE02BAE0E752
:1035E000B2EE02BADDE79FED8E7AF4EEC77AF1EE25
:1035F00010FA13DD9FED8F7AF4EEC77AF1EE10FA30
:103600000CD59FED8D7A77EEC77A9FED8C7A67EEB9
:10361000877A9FED8BCA3CEE67CA2DE09FED857AD5
:10362000F4EEC77AF1EE10FA13DD9FED867AF4EE30
:10363000C77AF1EE10FA0CD59FED837A77EEC77A50
:103640009FED827A67EE877A9FED81CA3CEE67CA6A
:1036500012E09FED7C7AF4EEC77AF1EE10FA32DDDB
:103660009FED7C7AF4EEC77AF1EE10FA2ED49FED3E
:103670007ACA01E09FED6ECAFDEECA7A17EE903A63
:10368000002BB8BF5B4207EE903AF8EEE77A9FED69
:10369000637AF4EEC77AF1EE10FA1AD437DD9FEDB3
:1036A000607AF4EEC77AF1EE10FA33D59FED5D7AC9
:1036B00037EEC77ADFED696A27EE267AF1EE04BAB3
:1036C0007BEEC7BA07E09FED64CAD5E79FED64CAF9
:1036D000D2E7F1EE04BA9FED517AF4EEC77AF1EE3B
:1036E00010FA61D419DB9FED4E7AF4EEC77AF1EE51
:1036F00010FA12D59FED4B7A77EEC77A9FED4B7A91
:1037000067EE877ADFED4ACA7CEEE7CA4EE0F1EE5B
:1037100002BAE0E7F1EE02BADDE79FED417AF4EE9E
:10372000C77AF1EE10FA13DB9FED427AF4EEC77A16
:10373000F1EE10FA0CD59FED407A77EEC77A9FED47
:103740003F7A67EE877ADFED3ECA7CEEE7CA2DE06E
:103750009FED387AF4EEC77AF1EE10FA13DB9FEDA5
:10376000397AF4EEC77AF1EE10FA0CD59FED367A7D
:1037700077EEC77A9FED357A67EE877ADFED34CA48
:103780007CEEE7CA12E09FED2F7AF4EEC77AF1EEF5
:1037900010FA3ADB9FED337AF4EEC77AF1EE10FAC5
:1037A00036D4DFED31CA01E0DFED21CA2F4B1B68B3
:1037B00093F855306BB1022B0BD01CEE103AB0EEE3
:1037C0006CCA0CEE903A1BEE103AB0EE6BBA0BEEF0
:1037D000903A274B1868FDF775FD264B1868FDF7E2
:1037E00071FD254B1868FDF76DFDFDF7ADFD05205A
:1037F000FDF764FF01F0ACFF0490204BD3ED007A9D
:10380000CDED057A0023039332E2DFED17CACDE751
:10381000DFED11CACAE70023039333E000009B43A6
:103820000080F743000096430AD7A33B6F12833909
:103830009A99193E00C046440000FA4317B7D138A0
:10384000CDCCCC3D00E0D34400004844233ABA3705
:10385000295C8F3D0000E1440AD7233D0AD7233B72
:10386000CDCC4C3D0060E04496430B3D84000020ED
:10387000A00000209C000020A4000020DC0000200C
:103880000023039301F064FF049BC01A58457FD8BE
:10389000F2EE027AB4EEE7DAF1EE10FA40F3B98014
:1038A000F5EE409AF1EE10FA00F08C80F5EEC08A49
:1038B000F1EE10FA40F38380F7EE008A1DEE100A55
:1038C000FCF7CAFD04460D46F0EEE97A17EE900AC1
:1038D000FCF7C2FD06460F4602460B462046294627
:1038E000FCF73CFF94A3D3E90023FCF70DFE02464E
:1038F0000B4600208C49FCF74FFCFDF7DDF88046B5
:103900006BEE287A17EE900AFCF7A6FD02460B46EE
:1039100030463946FCF7F8FD81468A4619EE900A92
:10392000FCF79AFD06460F4618EE900AFCF794FD48
:1039300022462B46FCF7E8FD02460B463046394648
:10394000FCF72AFC32463B46FCF708FFFDF7B4F8CB
:103950000146CCEE0B7A17EE900A03F09DFEFCF7C1
:103960007BFD02460B4648465146FCF7CDFD04461A
:103970000D464046FCF770FD22462B46FCF7C4FD81
:10398000FDF79AF808EE900A45E00023039379E7E3
:103990000120FDF7C1FF654B1868FDF793FC644BF0
:1039A0001868FDF78FFC634B1868FDF78BFC32201D
:1039B00001F0D4FE11B0BDEC0C8BBDE8F08FFFEE32
:1039C000008A7BE76BEE287A17EE900AFCF744FD3D
:1039D00004460D46F0EEC87A17EE900AFCF73CFD5F
:1039E00002460B4620462946FCF78EFD04460D464E
:1039F000F0EECA7A17EE900AFCF72EFD02460B464F
:103A000020462946FCF7AAFEFDF756F808EE900A74
:103A100001E0DFED4B8AF0EEC87AB2EE027AF4EE06
:103A2000C77AF1EE10FA40F38F80B5EE40AAF1EEBE
:103A300010FA53D0B5EEC08AF1EE10FA4BDDB7EEB6
:103A4000008A17EE900AFCF707FD80468946F0EEE3
:103A5000CA7A17EE900AFCF7FFFC04460D466BEE9F
:103A6000887A17EE900AFCF7F7FC02460B462046D0
:103A70002946FCF749FD06460F461AEE100AFCF7E8
:103A8000EBFC04460D4618EE100AFCF7E5FC424636
:103A90004B46FCF739FD02460B4620462946FCF70B
:103AA0007BFB22462B46FCF759FEFDF705F8014645
:103AB000CCEEAB7A17EE900A03F0EEFDFCF7CCFCEF
:103AC00002460B4630463946FCF71EFDFCF7F4FF74
:103AD00008EE100A3AE0BFEE008AB2E76BEE887A91
:103AE00017EE900AFCF7B8FC04460D461DEE100ACE
:103AF000FCF7B2FC02460B4620462946FCF704FDC3
:103B000004460D46F0EEE97A17EE900AFCF7A4FCA5
:103B100002460B4620462946FCF720FEFCF7CCFF68
:103B200008EE100A12E000BF0000F03FA0000020E5
:103B30009C000020A4000020000000403333E33F3D
:103B400000000000CDCC4C3F1FED038AB0EEC99AB7
:103B50005FED047AB4EEE79AF1EE10FA00F3CF804D
:103B60004FF0000A6A4B93ED00DA6A4BD3F80080FD
:103B7000C8ED0E8A88ED0F8AC8F850A028EEA87A02
:103B800068EE087A77EE277A17EE900AFCF764FC65
:103B900003F05AFDFCF790FF044618EE900AFCF77C
:103BA0005BFCCDE90001F0EEE87A17EE900AFCF735
:103BB00053FC06460F462046FCF74EFC04460D46D5
:103BC00002460B4630463946FCF7C8FD02460B4616
:103BD000DDE90001FCF798FCFCF76EFF8146C8F8B0
:103BE000380018EE100AFCF737FC06460F46F0EED8
:103BF000C87A17EE900AFCF72FFC22462B46FCF7FA
:103C0000ADFD02460B4630463946FCF77DFCFCF71D
:103C100053FF0746C8F83C003F4E3146484603F084
:103C200031FE3E4C214603F00FFE0546C8F8380031
:103C30003146384603F026FE214603F005FE0446D1
:103C4000C8F83C003649504603F01CFE354903F0E5
:103C5000FBFDC8F85000079508948DED09DA0321A3
:103C600007A800F03BFFFDF747FD322001F076FD8D
:103C70000520FDF723FD274B1B68D3ED108A79EE55
:103C8000E88A93ED118A3AEE488A214AD2ED007A09
:103C90003AEEE79ACDED0A8A8DED0B8A8DED0C9AFE
:103CA0009A6B0D92DB6B0E93CDED0F7AB0EEE8DAE6
:103CB000F2EE027AB4EEE7DAF1EE10FA7FF5ABAD90
:103CC000F0EEC87AB2EE027AF4EEC77AF1EE10FAAC
:103CD0007FF5D6ADF0EEC97A9FED137AF4EEC77A90
:103CE000F1EE10FA7FF551AE039B01339BB20393C3
:103CF000022B7FF6C7AD0120FDF70EFE4BE60B4B06
:103D00001A6805991AEE900AFEF7CEF8824629E75E
:103D1000DC000020840000200080BB440080BBC485
:103D200000008C4200008CC2CDCC4C3FA40000208F
:103D300038B504460D460023036043600520FDF7B7
:103D4000BDFC224B1B6893F85530032B10D8DFE8DD
:103D500003F00213212F1E4B1B78EB1A07EE903A4B
:103D6000F8EEE77A9FED1B7A67EE877AC4ED017A69
:103D7000174B1D70204638BD154B1B785B1B07EE9B
:103D8000903AF8EEE77A9FED137A67EE877AC4ED02
:103D9000007AEDE70E4B1B785B1B07EE903AF8EECE
:103DA000E77A9FED0C7A67EE877AC4ED017ADFE758
:103DB000074B1B78EB1A07EE903AF8EEE77A9FED87
:103DC000057A67EE877AC4ED007AD1E78400002097
:103DD00000000020000016432DE9F04107460E4682
:103DE0001546984601F0B4FC0AE00B490F704E707E
:103DF000FF230222094802F0E6FE642001F0AEFC37
:103E0000074C246894F80CC0AC45EED1637B434565
:103E1000EBD1BDE8F08100BF800100202C03002021
:103E20000400002038B5044600254FF47A732A4672
:103E30001C491D48FEF744FD40F2DC532A461B494D
:103E40002846FEF73DFD04B938BD01F081FC04466B
:103E500015E000244FF4FA73224615492046FEF778
:103E60002FFD4FF4FA73224612492046FEF728FD33
:103E700001F06EFC044608E0642001F06FFC01F0E4
:103E800067FC031BB3F5FA6FE3D80B4B1B689A7BF7
:103E9000002AF1D0DA7B002AEED01B7C002BEBD07D
:103EA000D2E700BF00003E4300003EC30000AF4326
:103EB0000000C8420000C8C20400002010B582B053
:103EC0000446002300930193012803D0022C1AD04A
:103ED00002B010BD40F6C413002229492948FEF75C
:103EE000EFFC01231A4600211846FFF775FF002159
:103EF0004FF47A70FFF708F90323012202211046DC
:103F0000FFF76AFFE2E702216846FFF711FF64202E
:103F100001F024FC40F6B8331B4A9DED017ADFED39
:103F20001B7A77EE677A17EE901A9DED007ADFED37
:103F3000187A77EE277A17EE900AFEF7C1FC002474
:103F400040F2A4624FF07E512046FFF7A1F84FF4F3
:103F5000FA6322460F491048FEF7B2FC01231A46C5
:103F600000211846FFF738FF00214FF47A70FFF761
:103F7000CBF80323012202211046FFF72DFFA7E70C
:103F80000080684400005C420000B4420000C84267
:103F900000005C440000B4C300003442F0B585B0BA
:103FA000044600254FF4FA632A46BD49BD48FEF792
:103FB00087FCBD4E4FF4FA624FF07E513046FFF75A
:103FC00067F840F6B83332462946B848FFF7B4FAE6
:103FD000022102A8FFF7ACFE012C0AD0022C00F04F
:103FE000B3801323022212211046FFF7F5FE05B01D
:103FF000F0BDAF4F3B686C46997B2046FFF798FEBB
:1040000002AD94E8030085E803004FF4FA633246FA
:1040100003990298FEF788FE012302220021104630
:10402000FFF7DAFE01214FF47A70FFF76DF80323F2
:10403000022211461046FFF7CFFE41F28830FFF70B
:1040400065F90523022204211046FFF7C5FE3B68EF
:10405000D97B2046FFF76CFE94E8030085E8030057
:104060004FF4FA63324603990298FEF75DFE072388
:10407000022206211046FFF7AFFE41F28830FFF71B
:1040800045F90923022208211046FFF7A5FE3B68E7
:10409000197C2046FFF74CFE94E8030085E80300F6
:1040A0004FF4FA63324603990298FEF73DFE0B2364
:1040B00002220A211046FFF78FFE41F28830FFF7F7
:1040C00025F90D2302220C211046FFF785FE3B68DF
:1040D000997B2046FFF72CFE94E8030085E8030057
:1040E0004FF4FA63324603990298FEF71DFE0F2340
:1040F00002220E211046FFF76FFE3B68D97B204657
:10410000FFF716FE94E8030085E803004FF4FA6316
:10411000324603990298FEF707FE1123022210216E
:104120001046FFF759FE3B68197C2046FFF700FE5A
:1041300094E8030085E803004FF4FA6332460399DC
:104140000298FEF7F1FD4CE7594F3B686C46597CED
:104150002046FFF7EDFD02AD94E8030085E803007B
:10416000514E4FF4FA63324603990298FEF7DCFD94
:104170000123022200211046FFF72EFE01214FF4F9
:104180007A70FEF7C1FF0323022211461046FFF7A3
:1041900023FE41F28830FFF7B9F8052302220421FB
:1041A0001046FFF719FE3B68997C2046FFF7C0FDDB
:1041B00094E8030085E803004FF4FA63324603995C
:1041C0000298FEF7B1FD0723022206211046FFF7F1
:1041D00003FE41F28830FFF799F8092302220821F3
:1041E0001046FFF7F9FD3B68D97C2046FFF7A0FD9C
:1041F00094E8030085E803004FF4FA63324603991C
:104200000298FEF791FD0B2302220A211046FFF7C8
:10421000E3FD41F28830FFF779F80D2302220C21EB
:104220001046FFF7D9FD3B68597C2046FFF780FD1B
:1042300094E8030085E803004FF4FA6332460399DB
:104240000298FEF771FD0F2302220E211046FFF7A0
:10425000C3FD3B68997C2046FFF76AFD94E80300A4
:1042600085E803004FF4FA63324603990298FEF79B
:104270005BFD1123022210211046FFF7ADFD3B68C4
:10428000D97C2046FFF754FD94E8030085E803003D
:104290004FF4FA63324603990298FEF745FDA0E613
:1042A0000000D2C30000A0C2000034430080D4C488
:1042B000040000202DE9F04184B00446002302935D
:1042C0000393022102A8FFF733FD40F6B8338B4A6F
:1042D0009DED037ADFED8A7A77EE277A17EE901A52
:1042E0009DED027ADFED877A77EE277A17EE900A56
:1042F000FEF7E6FA40F2A4624FF07E518248FEF7E4
:10430000C7FE02216846FFF713FD012C2ED0022CB8
:1043100039D040F6B8337C4A9DED037ADFED7B7AE5
:1043200077EE277A17EE901A9DED027ADFED747A18
:1043300077EE277A17EE900AFEF7C2FA01230322DE
:1043400000211046FFF748FD01214FF47A70FEF777
:10435000DBFE03231A4602211846FFF73DFD012C20
:104360001ED0022C6ED004B0BDE8F081684B1B68F3
:104370006D46997B2846FFF7DBFC95E8030004AB0C
:1043800003E90300C5E7624B1B686D46597C28466C
:10439000FFF7CEFC95E8030004AB03E90300B8E7A0
:1043A00041F28830FEF7B2FF0523032204211046B4
:1043B000FFF712FDDFF85881D8F800306D46D97B41
:1043C0002846FFF7B5FC02AE95E8030086E8030037
:1043D0004D4F4FF4FA633A4603990298FEF7A4FC56
:1043E0000723032206211046FFF7F6FC41F288302E
:1043F000FEF78CFF0923032208211046FFF7ECFC8F
:10440000D8F80030197C2846FFF792FC95E80300A5
:1044100086E803004FF4FA633A4603990298FEF7E0
:1044200083FC0B2303220A211046FFF7D5FC41F23F
:104430008830FEF76BFF0D2303220C211046FFF797
:10444000CBFC8EE7324F3B686C46997C2046FFF7E9
:104450006FFC02AD94E8030085E803002A4E4FF498
:10446000FA63324603990298FEF72AFA05230322DB
:1044700004211046FFF7B0FC3B68D97C2046FFF7CB
:1044800057FC94E8030085E803004FF4FA633246D2
:1044900003990298FEF714FA072303220621104617
:1044A000FFF79AFC02212046FFF742FC94E8030044
:1044B00085E8030040F6B83332469DED037ADFED20
:1044C000117A77EE677A17EE901A9DED027ADFED9A
:1044D000117A77EE277A17EE900AFEF7F1F940F697
:1044E000B83332460C490020FEF7EAF940F6B833FB
:1044F00032460A490A48FEF7E3F934E7000034433C
:10450000000048440000C8420000B44200008C4251
:104510000400002000005C440040B5C40000B9C3A2
:1045200000002F4310B584B000240094019402943D
:1045300003948DF80000F6208DF801008DF802102C
:10454000110A8DF803108DF804208DF805309DF8C0
:1045500018308DF806306B238DF807304FF6FF7357
:1045600008226946024802F02EFB04B010BD00BFCD
:104570007003002030B585B0089C0025009501959A
:10458000029503958DF80000FD208DF801008DF84F
:104590000210110A8DF803108DF804208DF80530F3
:1045A000230E8DF80630C4F307438DF80730C4F3AB
:1045B00007238DF808308DF809409DF824308DF8D8
:1045C0000A309DF828308DF80B306B238DF80C30B5
:1045D0004FF6FF730D226946024802F0F4FA05B067
:1045E00030BD00BF7003002000B585B000230093EC
:1045F0000193029303938DF80000FE238DF80130A0
:1046000098238DF802308DF803106B238DF8043059
:104610004FF6FF7305226946024802F0D4FA05B04E
:104620005DF804FB7003002000B585B00023009303
:104630000193029303938DF80000FF238DF801305E
:1046400066238DF802306B238DF803304FF6FF732D
:1046500004226946024802F0B6FA05B05DF804FB90
:104660007003002000B585B08C46022821D00428B4
:1046700021D00021002B20DB4FF4485E0EFB03F31A
:1046800007EE903AF8EE677ADFED0F6A87EEA67ACA
:10469000BCEEC77A9DF81C3002939DF81830019348
:1046A0008DED007A13466246FFF764FF05B05DF8B2
:1046B00004FB0121DEE70121DCE711B111B100218A
:1046C00000E001215B42D7E71EA99A4300B583B001
:1046D00007EE901A02281BD004281BD00021F5EE0B
:1046E000C07AF1EE10FA17DB9FED117A67EE877A48
:1046F000DFED106A87EEA67AFCEEC77A00931346C8
:1047000017EE902A92B2FFF70DFF03B05DF804FB9D
:104710000121E4E70121E2E702D4DFED077AE3E7D4
:1047200011B111B1002100E00121F1EE677ADBE760
:10473000000070421EA99A430000000010B5044614
:10474000602004F015FE034618B304700022427086
:1047500042808280C2800281428100200021C3E920
:1047600004019A61C3E90801C3E90A0183F8302012
:1047700083F8312083F8322000225A639A63DA6387
:104780001A649A64DA645A641A655A65012283F8D5
:104790005820184610BD000008B50120FFF7CEFFD5
:1047A000084B18600220FFF7C9FF074B1860032071
:1047B000FFF7C4FF054B18600420FFF7BFFF044B51
:1047C000186008BDC0000020BC000020B800002018
:1047D000B40000202DE9F0472DED048B05460C4672
:1047E00003780B70022B00F00481042B00F0FE8094
:1047F00001236A786270AA786280EA78A2802979B7
:104800006A7942EA0122E280A979EA7942EA012240
:104810002281297A6A7A42EA01226281EA7A287B35
:10482000000440EA02606A7B40EA0220A97B002281
:1048300008431146AE7A012E00F0DE8020616161EE
:10484000DF171A4603FB01F100FB0716A3FB00016B
:1048500031442061616195F810C06E7C46EA0C26F7
:1048600095F80FC0BCF1010F00F0CA80A66103FBF0
:1048700006F6A66195F813C02B7D1B0443EA0C6372
:1048800095F815C043EA0C2395F816C04FF0000EBA
:1048900043EA0C03F44695F81280B8F1010F00F0DA
:1048A000B1802362C4F824C002FB0CFC03FB07CCDC
:1048B000A2FB0398E044C4F82090C4F8248095F843
:1048C00018C06B7E1B0443EA0C6395F81AC043EAD8
:1048D0000C2395F81BE04FF0000C43EA0E03E24670
:1048E00095F817E0BEF1010F00F09080A362C4F8C4
:1048F0002CA002FB0AFA03FB07AAA2FB0372924454
:10490000A762C4F82CA0FCF7F7F907EE900ADFEDD8
:10491000419A67EEA97A9FED409A67EE897AC4EDD5
:104920000D7A07EE906AB8EEE78A84ED0E8A484663
:104930004146FCF7E1F908EE900A68EEA97A67EEC5
:10494000897AC4ED0F7A38465146FCF7D5F907EE5F
:10495000900A67EEA97A67EE897AC4ED107ADFEDE6
:104960002F7A68EEA78A68EE898AC4ED118A94F8D6
:10497000583023B1002384F85830C4ED128ADFED9B
:10498000277A28EE278A9FED267AC8EE077AC4EDAB
:10499000157A2B7F84F830306B7F84F83130AB7F11
:1049A00084F8323000F0D4FE07EE900AF8EE677A11
:1049B0001C4B93ED007AB8EE477A77EEC77A9FEDFD
:1049C0001A7AF4EEC77AF1EE10FA01DD0023A3643F
:1049D00094ED117AD4ED127A77EE677AC4ED147AF9
:1049E00084ED127ABDEC048BBDE8F0874FF0FF3305
:1049F000FFE64FF0FF33FCE6404262EB42011DE769
:104A0000764233E75B426EEB4E0C4AE75B426CEB5F
:104A10004C0A6BE70000B443000080371EA99A439C
:104A200000007042D000002000007A442DE9F843D5
:104A3000894690461F469DF820509DF824600A9CA8
:104A400033462A4601460120FFF740FE204600F08B
:104A500085FE33462A4649460220FFF737FE2046A8
:104A600000F07CFE33462A4641460320FFF72EFE27
:104A7000204600F073FE33462A4639460420FFF7ED
:104A800025FE204600F06AFE0020FFF7CDFD2046FF
:104A900000F064FEBDE8F88300B585B00023009304
:104AA0000193029303938DF8000043238DF80130A6
:104AB0007A238DF802306B238DF803304FF6FF73A5
:104AC00004226946024802F07EF805B05DF804FB56
:104AD0007003002008B5FFF75FFE08BD80B500AF8A
:104AE0008E464A1C93000733DB086946A1EBC303DB
:104AF0009D466946002305E050F823C041F823C0D5
:104B00000133DBB27345F7D34FEA8E03002001F87F
:104B10002E0003F1010C01F80C00981C4FF0800CE2
:104B200001F800C003337F20C8544FF6FF73920092
:104B3000024802F048F8BD4680BD00BFE8020020F0
:104B400010B582B000240094124B1A6B42F400128C
:104B50001A631A6B02F400120092009A01941A6B05
:104B600042F480021A631B6B03F480030193019BE0
:104B7000224605210B2000F04BFE0B2000F058FED2
:104B8000224605213A2000F043FE3A2000F050FE74
:104B900002B010BD00380240F0B58BB0002405947F
:104BA00006940794089409940194294B1A6B42F0D7
:104BB00080021A631A6B02F080020192019A029439
:104BC0001A6B42F001021A631A6B02F001020292A0
:104BD000029A03941A6B42F004021A631A6B02F0F1
:104BE00004020392039A04941A6B42F008021A63B7
:104BF0001B6B03F008030493049B164F22462021ED
:104C0000384601F07BF9144D22464FF48071284656
:104C100001F074F90126059606940223079305A96D
:104C2000284601F075F8202305930696079408940A
:104C300005A9384601F06CF84FF480730593069689
:104C40000794089405A9284601F062F80BB0F0BD5E
:104C500000380240000802400000024070B582B0F7
:104C60000546AB4B984231D0AA4B9D4255D0AA4B3A
:104C70009D4200F0278102B070BDA84AD15CA84ACD
:104C8000D15401331E2BF8DD1F220021A34804F06C
:104C90003FFCA34B9B7F6B2B1AD01F220021A04807
:104CA00004F036FC9E4E4FF6FF73012231469948C0
:104CB00001F089FF1F2422460021304604F028FC21
:104CC00022469649924802F0C5FACDE70023D9E77B
:104CD00000F03EFD934B1860914B1B78013B032B7A
:104CE000E0D8DFE803F002080E148F4B19688C48F7
:104CF000FFF770FDD6E78D4B19688948FFF76AFD0D
:104D0000D0E78B4B19688648FFF764FDCAE7894BEB
:104D100019688348FFF75EFDC4E700F019FD864B74
:104D20001860002304E0854AD15C854AD1540133E0
:104D3000202BF8DD21220021804804F0E9FB00242B
:104D400000E00134202C12DC7D4B1B5D2E2BF8D1B2
:104D5000631C7B4AD35C2E2BF3D1A31CD35C2E2B7C
:104D6000EFD121220021764804F0D2FBE9E70023AD
:104D70007DE0591C7248415C53297FD1D91D415CAB
:104D8000090209B29C1D005D014307EE901AF8EE7E
:104D9000E77A9FED6C7A67EE877ADFED6B6A67EEF4
:104DA000A67A6A49C1ED007A694991ED007AB4EEBC
:104DB000E67AF1EE10FA38D5DFED666AB4EEE67AFF
:104DC000F1EE10FA31DDDFED646AF4EEE67AF1EE31
:104DD00010FA2AD5DFED616AF4EEE67AF1EE10FA08
:104DE00023DD5F480168013101609FED577AF4EEE1
:104DF000477AF1EE10FA41D09FED587AF4EE477AF7
:104E0000F1EE10FA3AD0564991ED007AB8EEC77A31
:104E1000DFED546A27EE267A37EE877A524981ED24
:104E2000007A4B49C1ED007A28E0DFED4B6AB4EE21
:104E3000E67AF1EE10FAD8D5DFED486AB4EEE67AFC
:104E4000F1EE10FAD1DD9FED437AF4EEC77AF1EE80
:104E500010FACADD9FED3C7AF4EEC77AF1EE10FA53
:104E6000C3D53F48016801390160BEE70133192B02
:104E700022DC334AD25C552A3FF47BAF552AF5D168
:104E80005A1C2F498A5C522AF0D1DA1D8A5C120220
:104E900012B2981D095C0A4307EE902AF8EEE77AF1
:104EA0009FED287A67EE877A9FED307A67EE877AF2
:104EB0002F4AC2ED007AD9E721222049154802F095
:104EC000C9F9D4E62B4B1B78002B59D12A4B1B7800
:104ED000012B0AD0022B11D0264B00221A7001227E
:104EE00025490D4802F045F9C5E6224B01221A700A
:104EF00005222249084802F03CF9BCE61D4B02227B
:104F00001A7009221D49044802F033F9B3E600BFC4
:104F100070030020B40300202C030020C0010020F7
:104F2000A0010020D0000020C0000020BC00002014
:104F3000B8000020B4000020D40000205C01002054
:104F4000380100200000003800003443E000002059
:104F5000C80000200000B4420000B4C2000034C306
:104F6000C40000200000B443DC0000200000FA442C
:104F7000D8000020DF0100209001002091010020D6
:104F8000013BDBB2012B3FF676AE584B03221A7081
:104F9000574B1B78012B0AD0022B50D0534B0022C9
:104FA0001A7001225249534802F0E3F863E6504B6D
:104FB0005B79FF2B30D14E4B5A789C7844EA02241F
:104FC000DA78187940EA02204B4B19684B4BA3FB67
:104FD0000452D20802EB8205A4EB45040C7492B291
:104FE000A3FB0254E40804EB8405A2EB4502CA7358
:104FF0008C73A3FB0042D20802EB8204A0EB4400B6
:10500000C87492B2A3FB0203DB0803EB8300A2EB9C
:1050100040028A744B74C1E700248DF80440FF23DA
:105020008DF804304FF6FF73012201A9314801F0D9
:10503000CAFD2F4B1C605C609C60DC60AEE72C4BB3
:105040005B7AFF2B12D000248DF80440FF238DF8EB
:1050500004304FF6FF73012201A9264801F0B3FD89
:10506000234B1C605C609C60DC6097E7204B5978A8
:105070009A7842EA01222049086807EE902AF8EE61
:10508000E77AC0ED017A9FED1E7A67EE877A9FED91
:105090001D7AC7EE876AC0ED016ADC781A7942EAA8
:1050A000042207EE902AF8EEE77AC0ED007A0A684B
:1050B000D2ED007ADFED146A67EEA67AC7EE876A52
:1050C000C2ED006A58799A79096842EA00228A603A
:1050D000A2F5D242423A8A60DA790A731B7A4B739C
:1050E00000F036FB094A106058E700BFDF010020DE
:1050F000900100202C03002004000020CDCCCCCC5B
:105100000000204400007A440000F043CC0000205E
:1051100008B50268034B9A4200D008BD00F00CFBB2
:10512000FBE700BF0014004072B6FEE700B595B083
:105130003022002108A804F0EBF900230393049324
:105140000593069307930193204A116C41F0805117
:105150001164126C02F080520192019A02931C4B6E
:105160001A6842F480421A601B6803F48043029379
:10517000029B012308934FF48033099302220E927D
:105180004FF480030F9304231093A82111911292DE
:10519000139308A800F0B8FE98B90F2303930223D5
:1051A0000493002305934FF4A05306934FF48053C8
:1051B0000793052103A801F011F920B915B05DF896
:1051C00004FBFFF7B1FFFFF7AFFF00BF003802405D
:1051D0000070004070B500F095FAFFF7A7FFFFF7E9
:1051E000DBFCFFF7ADFC00F023F900F03BF900F029
:1051F00053F900F003F9244C2268D36843F01003FC
:10520000D36001222149224801F0B3FF214D212220
:105210002946204602F01EF81F4C204E1F22214630
:10522000304602F017F83268D36843F01003D360B9
:1052300021220021284604F06BF91F22002120467C
:1052400004F066F9FFF746FCFBF7F4FD00F080FA86
:105250000120FEF7E7FD0120FEF730FE0120FEF7FA
:105260009DFE0120FFF726F80220FEF727FE022010
:10527000FEF794FE0220FFF71DF8094800F06EFAD1
:10528000FBF7D8FDE4E700BFB40300209001002045
:105290002C0300205C010020C001002070030020CE
:1052A0008096980000B583B0002200920D4B596C97
:1052B00041F480415964596C01F480410091009996
:1052C0000192196C41F0805119641B6C03F08053FA
:1052D0000193019B0F216FF0010000F099FA03B0D8
:1052E0005DF804FB0038024030B589B00446002365
:1052F0000193214B1A6C42F020021A641B6C03F0DC
:1053000020030193019B02A903A801F03DF9069B2C
:10531000CBB901F019F90346184AA2FB03239B0CF1
:10532000013B1748174A026040F2E732C26043600F
:10533000002303618360836101F0B0FA054630B158
:10534000284609B030BD01F0FFF84300E4E70C48FF
:1053500001F03AF905460028F2D1372000F068FA4A
:105360000F2C01D90125EBE700222146372000F060
:105370004FFA054B1C60E3E70038024083DE1B4315
:10538000E00100200014004010000020FEE7FEE7CE
:10539000FEE7FEE7FEE7704708B5024800F0CAFBEB
:1053A00008BD00BF8802002008B5024801F02EFDAC
:1053B00008BD00BF2C03002008B5024801F026FDFF
:1053C00008BD00BFE802002008B5024801F044F91A
:1053D00008BD00BFE001002008B5024800F0AAFBAC
:1053E00008BD00BF28020020034AD2F8883043F4E9
:1053F0007003C2F88830704700ED00E008B50A4835
:105400000A4B03604FF4E133436000238360C360C1
:1054100003610C2242618361C36101F0A5FB00B905
:1054200008BDFFF781FEFBE7B403002000500040F9
:1054300008B50A480A4B03604FF4E1334360002388
:105440008360C36003610C2242618361C36101F028
:105450008BFB00B908BDFFF767FEFBE77003002078
:105460000010014008B50A480A4B03604FF4E133CD
:10547000436000238360C36003610C224261836147
:10548000C36101F071FB00B908BDFFF74DFEFBE7FA
:105490002C0300200044004008B50A480A4B036072
:1054A0004FF4E133436000238360C36003610C2247
:1054B00042618361C36101F057FB00B908BDFFF78A
:1054C00033FEFBE7E8020020004800402DE9F041F0
:1054D0008EB00446002309930A930B930C930D930B
:1054E00003687C4A93420DD07B4A93425ED07B4A4C
:1054F000934200F098807A4A934200F0BF800EB049
:10550000BDE8F08100250095764B1A6C42F48012BC
:105510001A641A6C02F480120092009A01951A6BB8
:1055200042F004021A631A6B02F004020192019A1B
:1055300002951A6B42F008021A631B6B03F0080312
:105540000293029B4FF4805309934FF00208CDF869
:10555000288003270C9708260D9609A9624800F0B9
:10556000D7FB04230993CDF828800B950C970D9653
:1055700009A95E4800F0CCFB5D485E4B03604FF02C
:10558000006343608560C5604FF4806303614561DB
:105590008561C5610562456200F0D4F918B9544BC4
:1055A000A3639C63ABE7FFF7BFFDF8E70025039516
:1055B0004C4B5A6C42F010025A645A6C02F01002C2
:1055C0000392039A04951A6B42F001021A631B6B53
:1055D00003F001030493049B4FF4C0630993022377
:1055E0000A9303230C9307230D9309A9424800F063
:1055F0008FFB4248424B03604FF00063436085607D
:10560000C5604FF48063036145618561C5610562D2
:10561000456200F097F918B9384BA3639C636EE7B5
:10562000FFF782FDF8E7002405942E4B1A6C42F434
:1056300000321A641A6C02F400320592059A06943C
:105640001A6B42F008021A631B6B03F008030693FF
:10565000069B6023099302230A9303230C930723D9
:105660000D9309A9214800F053FB2246062126206C
:1056700000F0CEF8262000F0DBF840E70024079485
:10568000184B1A6C42F480221A641A6C02F48022BD
:105690000792079A08941A6B42F004021A631B6B74
:1056A00003F004030893089B4FF44063099302231B
:1056B0000A9303230C9307250D9509A90A4800F0C6
:1056C00027FB22462946272000F0A2F8272000F0D9
:1056D000AFF814E7005000400010014000440040C3
:1056E000004800400038024000080240000C024020
:1056F00088020020106002400000024028020020C2
:105700004064024008B50B4B1A6842F400721A60FC
:105710001A6842F480621A601A6842F480721A6051
:10572000032000F063F80F20FFF7DEFDFFF7BAFD5E
:10573000002008BD003C0240034A1168034B1B785F
:105740000B441360704700BFF80300200C000020DA
:10575000014B1868704700BFF803002038B50446B5
:10576000FFF7F6FF0546B4F1FF3F02D0044B1B786C
:105770001C44FFF7EDFF401BA042FAD338BD00BF29
:105780000C000020002808DB0901C9B200F16040CC
:1057900000F5614080F80013704700F00F00090128
:1057A000C9B2014B1954704714ED00E000B500F088
:1057B0000700C0F1070CBCF1040F28BF4FF0040C28
:1057C000031D062B0FD9C31E4FF0FF3E0EFA0CF03F
:1057D00021EA000199400EFA03FE22EA0E0241EA94
:1057E00002005DF804FB0023EEE70000074AD368DF
:1057F00023F4E0631B041B0C000200F4E06003438D
:1058000043F0BF6343F40033D360704700ED00E022
:1058100010B50446054BD868C0F30220FFF7C6FF59
:1058200001462046FFF7AEFF10BD00BF00ED00E0CF
:10583000002807DB00F01F02400901239340024AC1
:1058400042F82030704700BF00E100E030B4056846
:105850002C6824F480242C60046863608368402BE7
:1058600005D0036899600368DA6030BC704703684C
:105870009A600368D960F8E710B40368D9B21039A8
:105880000A4AA2FB01421209094CA25CC2655F29C7
:1058900007D96FF3090304338365806D5DF8044B0A
:1058A00070476FF309038365F7E700BFABAAAAAAA5
:1058B000E8950008836A826992B9012B0AD0022B0D
:1058C00002D00BB100207047C36A13F0807F28D14B
:1058D00000207047C36AB3F1C07F24D00020704716
:1058E000B2F5005F09D0022B25D9032B25D1C36A5D
:1058F00013F0807F23D100207047032B03D8DFE80B
:1059000003F01404140A00207047C36A13F0807F68
:105910000DD100207047C36AB3F1C07F09D00020C9
:105920007047012070470120704701207047012017
:105930007047012070470120704700207047012008
:105940007047000070B50446FFF702FF002C5BD0E3
:105950000546022384F83530002384F83430226869
:10596000136823F00103136023681A6812F0010F13
:105970000AD0FFF7EDFE431B052BF5D92023636505
:10598000032084F8350070BD1A6820491140626810
:10599000A0680243E0680243206902436069024351
:1059A000A0690243E0690243206A02430A43616A34
:1059B00004291ED01A602668756925F00705636AF8
:1059C0001D43042B07D1A36A1D43E36A1BB1204684
:1059D000FFF770FF90B975612046FFF74DFFE26D4C
:1059E0003F239340836000206065012384F83530B5
:1059F000C9E7E16A206B01430A43DBE740236365A3
:105A0000012084F83500BEE70120BCE73F8010F09C
:105A100038B50446856D90F8340001282BD001205C
:105A200084F8340094F83500C0B2012804D0002373
:105A300084F83430022038BD022084F8350000207C
:105A400060652046FFF702FFE26D3F239340AB60A5
:105A50002268136843F016031360236C23B1226895
:105A6000136843F0080313602268136843F00103CE
:105A700013600020DFE70220DDE770B50446866D85
:105A8000FFF766FE94F83530DBB2022B06D0802398
:105A90006365002384F83430012070BD0546226818
:105AA000136823F0160313602268536923F0800300
:105AB0005361236CE3B12268136823F00803136079
:105AC0002268136823F00103136023681B6813F036
:105AD000010F11D0FFF73CFE431B052BF5D9202306
